:10010000C204D205C203C200C202C2011203E3D27A
:10011000E843D820907FAB74FFF0907FA9F0907FE8
:10012000AAF05391EF907F95E044C0F0907FAFE04C
:100130004401F0907FAEE0440DF0D2AF1209ED2003
:1001400001427524007523007522007521007F4847
:100150007E927D007C00AB24AA23A922A821C31291
:100160000DA550DB2001D87A0079007800E5242421
:1001700001F524EA3523F523E93522F522E8352176
:10018000F52180CA3001051201AFC20130041A12F4
:1001900003E750131209A7300007907FD6E030E73D
:0E01A000F312098D1203E9C2031203E680D6A2
:0101AE00222E
:1001AF00907FE9E0700302028714700302030324B7
:1001BF00FE700302037724FB7003020281147003A5
:1001CF0002027B14700302026F1470030202752483
:1001DF000560030203CB1203EB40030203D7907FAA
:1001EF00EBE024FE601614604024027069741190D5
:1001FF007FD4F07400907FD5F00203D7907FEAE0B0
:10020F00FF120BF28B258A268927EA496011AE026D
:10021F00EE907FD4F0AF01EF907FD5F00203D7902F
:10022F007FB4E04401F00203D7907FEAE0FF120BA6
:10023F00B18B258A268927EA496011AE02EE907F9D
:10024F00D4F0AF01EF907FD5F00203D7907FB4E0E9
:10025F004401F00203D7907FB4E04401F00203D7CA
:10026F0012040B0203D71204030203D71203ED0289
:10027F0003D71203F50203D712041940030203D761
:10028F00907FE8E0247F60241460312402705BA229
:10029F0000E433FF25E0FFA202E4334F907F00F02C
:1002AF00E4A3F0907FB57402F00203D7E4907F00CF
:1002BF00F0A3F0907FB57402F00203D7907FECE0CB
:1002CF00F45480FFC4540FFFE054072F25E024B4EB
:1002DF00F582E4347FF583E054FD907F00F0E4A3D2
:1002EF00F0907FB57402F00203D7907FB4E0440121
:1002FF00F00203D712041B40030203D7907FE8E0FC
:10030F0024FE601D240260030203D7907FEAE0B44D
:10031F000105C2000203D7907FB4E04401F002034D
:10032F00D7907FEAE07038907FECE0F45480FFC400
:10033F00540FFFE054072F25E024B4F582E4347FF7
:10034F00F583E4F0907FECE05480FF131313541FF8
:10035F00FFE054072F907FD7F0E04420F0806990A2
:10036F007FB4E04401F0806012041D505B907FE881
:10037F00E024FE60182402704F907FEAE0B401047D
:10038F00D2008044907FB4E04401F0803B907FEA3C
:10039F00E07020907FECE0F45480FFC4540FFFE036
:1003AF0054072F25E024B4F582E4347FF5837401DC
:1003BF00F08015907FB4E04401F0800C12041F50C0
:0F03CF0007907FB4E04401F0907FB4E04402F067
:0103DE0022FC
:030033000203DFE6
:0403DF0053D8EF32CE
:101100001201000100000040470510270100010204
:10111000000109022000010103A0000904000002EF
:10112000FF0000040705820240000007050202409C
:10113000000004030904260341006E0063006800F8
:101140006F007200200043006800690070007300A7
:101150002C00200049006E0063002E00280346008A
:10116000690072006D007700610072006500200068
:101170004600720061006D00650057006F0072004C
:101180006B0073002A0343006F006E006600690065
:101190006700750072006100740069006F006E00E6
:1011A000200053007400720069006E006700220383
:1011B00049006E0074006500720066006100630003
:1011C0006500200053007400720069006E00670023
:0211D00000001D
:0303E300D2002223
:0103E60022F4
:0203E700D3221F
:0203E900D3221D
:0203EB00D3221B
:0803ED00907FEAE0F50AD3223B
:0E03F500907F00E50AF0907FB57401F0D322EE
:08040300907FEAE0F508D32226
:0E040B00907F00E508F0907FB57401F0D322D9
:02041900D322EC
:02041B00D322EA
:02041D00D322E8
:10041F00907FA5E05410FFC4540F4450F50913E426
:10042F0033F50B907FE9E0245EB40700400302062A
:10043F0097900447F82828730204DB0204DB0204B8
:10044F00B002045C02047202048E0204B9907F00B1
:10045F00E50BF0907FB57401F0907FB4E04402F0AB
:10046F00020697907F92E0FFC4540F907F00F090A8
:10047F007FB57401F0907FB4E04402F0020697124A
:10048F00090B5007E4907F00F08006907F00740FF7
:10049F00F0907FB57401F0907FB4E04402F0020653
:1004AF0097907FEAE0F509020697907F007407F0B6
:1004BF00907FB57401F0907FB4E04402F07FE87E46
:1004CF0003120A58D2061209C8020697907FEAE073
:1004DF00752800F529A3E0FEE4EE4228907FEEE0B8
:1004EF00752A00F52BA3E0FEE4EE422A907FE8E0A8
:1004FF0064C060030205E8E52B452A7003020697E6
:10050F00C3E52B9440E52A94005008852A2C852BAF
:10051F002D8006752C00752D40907FE9E064A37047
:10052F0034F530F531C3E531952DE530952C505C20
:10053F00E5292531F582E5303528F583E0FF740094
:10054F002531F582E4347FF583EFF00531E5317025
:10055F0002053080D0E4F530F531C3E531952DE556
:10056F0030952C501874002531F582E4347FF583D3
:10057F0074CDF00531E5317002053080DDAF29AE65
:10058F0028AD2D7A7F79007B001207EE907FB5E5BD
:10059F002DF0E52D2529F529E52C3528F528C3E57E
:1005AF002B952DF52BE52A952CF52A907F92E0FFC0
:1005BF00C4540F752E00F52FD39400E52E940050E0
:1005CF000C907FB4E020E10302050680F4907FB425
:1005DF00E020E20302050680F4907FE8E0644060CB
:1005EF0003020697E52B452A7003020697E4907FD6
:1005FF00C5F0907F92E0FFC4540F752E00F52FD3F6
:10060F009400E52E94005009907FC4E030E10980FA
:10061F00F7907FB4E020E3F9907FC5E0752C00F5EB
:10062F002D907FE9E064A37034F530F531C3E531E7
:10063F00952DE530952C503474C02531F582E43476
:10064F007EF583E0FFE5292531F582E5303528F584
:10065F0083EFF00531E5317002053080D0AF29AE60
:10066F0028AD2D7A7E79C07BC01207B9E52D2529DB
:10067F00F529E52C3528F528C3E52B952DF52BE528
:09068F002A952CF52A0205F3C39B
:01069800223F
:10069900C0E0C083C082C085C084C086758600D290
:1006A900015391EF907FAB7401F0D086D084D0854F
:0706B900D082D083D0E032B3
:1006C000C0E0C083C082C085C084C086758600E457
:1006D000907FC4F05391EF907FAB7404F0D086D03C
:0A06E00084D085D082D083D0E032B0
:1006EA00C0E0C083C082C085C084C08675860053BE
:1006FA0091EF907FAB7402F0D086D084D085D082FF
:05070A00D083D0E032B5
:10070F00C0E0C083C082C085C084C0867586005398
:10071F0091EF907FAB7410F0D086D084D085D082CB
:05072F00D083D0E03290
:010734003292
:10073500C0E0C083C082C085C084C086758600D2F3
:10074500035391EF907FAB7408F0D086D084D085A9
:07075500D082D083D0E03216
:01075C00326A
:01075D003269
:01075E003268
:01075F003267
:010760003266
:010761003265
:010762003264
:010763003263
:010764003262
:010765003261
:010766003260
:01076700325F
:01076800325E
:01076900325D
:01076A00325C
:01076B00325B
:06076C00AB07AA06AC0574
:10077200E4FDE50B6011EAFFAE050DEE2400F58203
:10078200E4340FF583EFF0EBAE050D74002EF58225
:10079200E4340FF583EBF0AF050D74002FF582E41E
:1007A200340FF583ECF0AF097A0F7B00120C5D7FFA
:0607B2000A7E00120A5845
:0107B800221E
:0A07B9008E328F338D348A358B3673
:1007C300E4F537E537C3953450200533E533AE32CE
:1007D3007002053214FFE5362537F582E43535F529
:0A07E30083E0FD12076C053780D992
:0107ED0022E9
:0A07EE008E328F338D348A358B363E
:1007F800E4FDF537E50B6012E532FFAE050DEE249A
:1008080003F582E4340FF583EFF0E533AE050D749C
:10081800032EF582E4340FF583E533F0AF097A0F40
:100828007B03120C5DAF09AD34AB36AA35120C410F
:01083800229D
:10097900500F05C0F9A4B0999282F880988883C66F
:03098900A1868EB6
:040839008C338D343B
:10083D00907F95E044C0F0E4F535F536C3E5369587
:10084D0034E53595335069EF2536F582E5353EF5BE
:10085D008374FFF0F46002C322EF2536F582E5358F
:10086D003EF583E4F06002C322EF2536F582E535CF
:10087D003EF58374AAF064AA6002C322EF2536F513
:10088D0082E5353EF5837455F064556002C322ADA3
:10089D0036E5362FF582E5353EF583EDF0FCAC05FA
:1008AD00ED6C6002C3220536E53670020535808C8D
:1008BD00E4F535F536C3E5369534E53595335027F2
:1008CD00EF2536F582E5353EF583E065366002C3EA
:1008DD0022EF2536F582E5353EF583E4F00536E564
:0808ED00367002053580CED300
:0108F50022E0
:1008F600AE077F217D0174052EF582E4340FAB82AD
:05090600FA120C5D2255
:10090B00753201E532601B7F011208F67F007E0E07
:10091B007D007C01120839E433F53270057F0F122C
:10092B0008F6E532601B7F021208F67F007E807DA1
:10093B00007C80120839E433F53270057F0F120802
:10094B00F6E532601B7F031208F67F007E207D40A8
:10095B007C5B120839E433F53270057F0F1208F611
:0D096B00E5326005E4FF1208F6E53224FFD6
:01097800225C
:03004300020A00AE
:100A0000020699000206EA000206C000020735004D
:100A100002070F000207340002075C0002075D00B6
:100A200002075E0002075F00020760000207610024
:100A30000207620002076300020764000207650004
:100A400002076600020767000207680002076900E4
:080A500002076A0002076B00B7
:10098D00907FD6E030E712E04401F07F147E001234
:0A099D000A58907FD6E054FEF022C5
:1009A700907FD6E04480F0438701000000000022DA
:1009C800907FD6E054FBF0E04408F0300604E044A1
:1009D80002F07FDC7E05120A58907FD6E054F7F0CB
:0509E800E04404F022D0
:100A58008E388F39E5391539AE38700215384E6041
:070A6800051209B780EE2220
:0809ED00E4F511D2E9D2AF22BA
:100A6F00A907E5117023907FA5E04480F0E925E008
:100A7F00907FA6F08D0CAF03A907750D018A0E8923
:0B0A8F000FE4F510751101D322C32203
:100A9A00A907E5117025907FA5E04480F0E925E0DB
:100AAA004401907FA6F08D0CAF03A907750D018A4A
:0D0ABA000E890FE4F510751103D322C3223D
:03004B00020AC7DF
:100AC700C0E0C083C082C085C084C086758600C070
:100AD700D0C000C001C002C003C006C007907FA5F8
:100AE700E030E206751106020B93907FA5E020E146
:100AF7000CE51164026006751107020B93AF11EF45
:100B070024FE604814602C24FE60772404600302EE
:100B17000B93AB0DAA0EA90FAF1005108F8275832B
:100B270000120D1E907FA6F0E510650C705E751122
:100B3700058059907FA6E0AB0DAA0EA90FAE108EC7
:100B470082758300120D4B7511028040E50C24FE5F
:100B5700B51007907FA5E04420F0E50C14B5100A06
:100B6700907FA5E04440F0E4F511907FA6E0AB0D3F
:100B7700AA0EA90FAE108E82758300120D4B0510B9
:100B8700800A907FA5E04440F0E4F5115391DFD04F
:100B970007D006D003D002D001D000D0D0D086D065
:0A0BA70084D085D082D083D0E032E4
:020BB1008F288B
:100BB300E4F529752AFF752B11752C32AB2AAA2B64
:100BC300A92C900001120D1EB4031DAF290529EFB6
:100BD300B5280122120D057E0029FFEE3AA90775FB
:0E0BE3002AFFF52B892C80D47B007A00790044
:010BF10022E1
:100BF200E4FE752AFF752B11752C12AB2AAA2BA9BC
:100C02002C900001120D1E6402702DAD060EEDB582
:100C1200070122900002120D6D85F028F529622845
:100C2200E5286229E529622829FDE5283AA9057502
:0E0C32002AFFF52B892C80C37B007A00790005
:010C40002291
:100C4100120A9AE51124FA600E146006240770F363
:0C0C5100D322E4F511D322E4F511D322E4
:100C5D00120A6FE51124FA600E146006240770F372
:0C0C6D00D322E4F511D322E4F511D322C8
:1009B7007400F58690FDA57C05A3E582458370F953
:0109C700220D
:03000000020C7976
:0C0C7900787FE4F6D8FD758139020CC0CC
:100D0500BB010689828A83E0225002E722BBFE02EC
:090D1500E32289828A83E493221F
:100D1E00BB010CE58229F582E5833AF583E022508A
:100D2E0006E92582F8E622BBFE06E92582F8E222D4
:0D0D3E00E58229F582E5833AF583E49322EE
:100D4B00F8BB010DE58229F582E5833AF583E8F0DE
:100D5B00225006E92582C8F622BBFE05E92582C88A
:020D6B00F22272
:100D6D00BB0110E58229F582E5833AF583E0F5F0C4
:100D7D00A3E0225009E92582F886F008E622BBFEA1
:100D8D000AE92582F8E2F5F008E222E5832AF583E7
:080D9D00E993F5F0A3E99322AC
:100DA500EB9FF5F0EA9E42F0E99D42F0E89C45F0A4
:010DB500221B
:100C8500020100E493A3F8E493A34003F68001F284
:100C950008DFF48029E493A3F85407240CC8C33370
:100CA500C4540F4420C8834004F456800146F6DF3F
:100CB500E4800B0102040810204080900979E47E4D
:100CC500019360BCA3FF543F30E509541FFEE49334
:100CD500A360010ECF54C025E060A840B8E493A3FB
:100CE500FAE493A3F8E493A3C8C582C8CAC583CA26
:100CF500F0A3C8C582C8CAC583CADFE9DEE780BEDE
:01098C00006A
:00000001FF
