:1063B5004D617220313020323030340030383A347B
:0963C500323A31310063B563C1C5
:105B8C00D205750B01750A00750900750800906344
:105B9C00CAE493FE740193AA06750EFF8A0FF510E2
:105BAC00C204D200C202C20112648912603BE4FF3B
:105BBC00FEC3EE6480948150150FEFAC0670010E9D
:105BCC00142424F582EC3460F583E4F080E3E4F5EE
:105BDC000CF50DE4FEFF74A6250DF582E43461F599
:105BEC0083E0FDE4ED5F602474242FF582E43460DF
:105BFC00F583C083C082E0FD74BE250DF582E434CC
:105C0C0061F583E0FCED4CD082D083F00FBF000136
:105C1C000EE4B507C1EEB401BD050DE50D7002052E
:105C2C000CE50D6408450C70AAE4FEFFC3EF945517
:105C3C00EE6480948050150FEFAC0670010E1424A6
:105C4C0050F582EC3461F583E4F080E0E4FEFF7EF5
:105C5C001090613EE4F0A3DEFC7E007F107F017D9E
:105C6C001012619A1262B07F027D3012619AD2E8F2
:105C7C0043D820907FAB74FFF0907FA9F0907FAA5F
:105C8C00F05391EFE4907F93F0907F9C7480F0E45C
:105C9C00907F96F0907F94E04480F0907F9D740FFD
:105CAC00F0907F9AE04402907F97F0907F9574C0BB
:105CBC00F0907F9EE044F3F0907F9BE04430907F27
:105CCC0098F075CB0F75CAFF438E2043C90274013F
:105CDC0090601CF0A3F0907FAFE04401F0907FAE99
:105CEC00E0441FF0907FAD7406F0907F93E0444049
:105CFC00F0907F95E04402F0C29FC29EC29DD2AC50
:105D0C00D2AF7F037D1112619A126258906157EFE6
:105D1C00F07F047D2312619A300105125776C2017F
:105D2C0030041A12643E5013126327200007907F30
:105D3C00D6E020E7F312639B12646DC2041252F397
:035D4C0080D622DC
:10577600907FE9E0700302584B1470030258C62468
:10578600FE700302591F24FB700302584514700370
:1057960002583F1470030258331470030258392418
:1057A600056003025971126491400302597C907F8F
:1057B600EBE024FE601614603F24027067741190BB
:1057C6007FD4F07400907FD5F002597C907FEAE098
:1057D600FF12610A8B118A128913EA496011AE021F
:1057E600EE907FD4F0AF01EF907FD5F002597C9018
:1057F6007FC47401F002597C907FEAE0FF12615980
:105806008B118A128913EA496011AE02EE907FD499
:10581600F0AF01EF907FD5F002597C907FC4740100
:10582600F002597C907FC47401F002597C12645FC7
:1058360002597C12648102597C12647902597C12E5
:10584600645102597C126493400302597C907FE8AC
:10585600E0247F60241460312402705BA200E433EC
:10586600FF25E0FFA202E4334F907F00F0E4A3F0AF
:10587600907FB57402F002597CE4907F00F0A3F0AB
:10588600907FB57402F002597C907FECE0F454806E
:10589600FFC4540FFFE054072F25E024B4F582E43B
:1058A600347FF583E054FD907F00F0E4A3F0907F11
:1058B600B57402F002597C907FC47401F002597CE1
:1058C600126495400302597C907FE8E024FE601C38
:1058D6002402600302597C907FEAE0B40105C2000D
:1058E60002597C907FC47401F002597C907FEAE0F3
:1058F600701F907FECE0F45480FFC4540FFFE05417
:10590600072F25E024B4F582E4347FF583E4F080A4
:1059160065907FC47401F0805D1264975058907F43
:10592600E8E024FE60172402704C907FEAE0B401A0
:1059360004D2008041907FC47401F08039907FEAE0
:10594600E07020907FECE0F45480FFC4540FFFE039
:1059560054072F25E024B4F582E4347FF5837401DF
:10596600F08013907FC47401F0800B1259845006A6
:0E597600907FC47401F0907FB4E04402F022F0
:0461FB0053D8EF3254
:1060AB00C0E0C083C082C0D075D000C00720990467
:1060BB00C2988040C29990601BE06401703690607A
:1060CB0018E0B4551B907F9AE04404907F97F090B2
:1060DB007F9AE054FB907F97F090601BE4F0801464
:1060EB00906018E0FF04F074502FF582E43461F5F2
:0F60FB0083E0F599D007D0D0D082D083D0E032A7
:10619A00AC07E4FBFAC3EB9C7480F86A9850147459
:1061AA00502BF582E43461F58374FFF00BBB0001D8
:1061BA000A80E2906155EDF0300105A3E04401F058
:0461CA0012642B220E
:10642B0090601B7401F0906150E0F59990601874C6
:03643B0001F0224B
:1062B000907FDE7406F0907FDFF0E4907FC7F0906F
:1062C0007FC9F0907FB27452F0A374F3F0907FAF67
:0962D000E04402F0E054FBF0226E
:1052F3009061F8E0FF640160030253F6A3F090614C
:1053030028E020E6079061F9E04401F0906127E08E
:1053130020E6079061F9E04402F0906126E020E680
:10532300079061F9E04404F090612CE020E60790D7
:1053330061F9E04408F090612DE020E6079061F9FF
:10534300E04410F090612EE020E6079061F9E0441C
:1053530020F0E49061FAF0906129E020E607906183
:10536300FAE04401F090612AE020E6079061FAE058
:105373004402F090612BE020E6079061FAE04404D8
:10538300F0E49061FBF0906130E020E5079061FB71
:10539300E04401F090612FE020E5079061FBE044D9
:1053A30002F090612EE020E5079061FBE04404F0F9
:1053B300906131E020E2079061FBE04408F09061E6
:1053C30032E020E2079061FBE04410F0906133E0AB
:1053D30020E2079061FBE04420F0E49061FCF09050
:1053E3006139E070079061FCE04401F09061F8746A
:1053F30002F022EF640360030255609061F9F0A3A9
:10540300F0A3F0A3F0A3F0A3F0A3F0A3F0A3F0A301
:10541300F0FFFE74262FF582E43461F583E0F92072
:10542300E3179061F9E0FD74A62FF582EE3461F580
:1054330083E0FCED4C9061F9F0E920E4179061FB07
:10544300E0FD74A62FF582EE3461F583E0FCED4CAC
:105453009061FBF0E920E5179061FDE0FD74A62F54
:10546300F582EE3461F583E0FCED4C9061FDF0E9EB
:1054730020E0179061FEE0FD74A62FF582EE346103
:10548300F583E0FCED4C9061FEF0E920E1179062BA
:1054930000E0FD74A62FF582EE3461F583E0FCEDA8
:1054A3004C906200F0E920E217906202E0FD74A6DE
:1054B3002FF582EE3461F583E0FCED4C906202F04F
:1054C3000FBF00010EEF64084E60030254167E0006
:1054D3007F0874262FF582E43461F583E0F920E038
:1054E300179061FFE0FD749E2FF582EE3461F58322
:1054F300E0FCED4C9061FFF0E920E117906201E0E0
:10550300FD749E2FF582EE3461F583E0FCED4C9043
:105513006201F0E920E3179061FAE0FD749E2FF534
:1055230082EE3461F583E0FCED4C9061FAF0E92002
:10553300E4179061FCE0FD749E2FF582EE3461F573
:1055430083E0FCED4C9061FCF00FBF00010EEF64B3
:0E555300104E60030254D59061F87404F022EB
:10643E00907F9BE054EF907F98F0907FAFE0440800
:03644E00F0D32266
:0C646D00907F9BE04410907F98F0D322B9
:02649100D32214
:08647900907FEAE0F542D32216
:0E645100907F00E542F0907FB57401F0D322F9
:08648100907FEAE0F521D3222F
:0E645F00907F00E521F0907FB57401F0D3220C
:02649300D32212
:02649500D32210
:02649700D3220E
:1063CE00C0E0C083C082D2015391EF907FAB7401C5
:0863DE00F0D082D083D0E03240
:10638000C0E0C083C082907FC4E4F05391EF907F5F
:0B639000AB7404F0D082D083D0E03268
:10556100907F9AE0FFC4540F540390613BF0906127
:10557100A5E0FF9061F1F090613BE0FE9061F0F0F9
:105581006F7003025770A3E0147003025612147077
:10559100030256811470030256EE2403600302577E
:1055A100579061F0E0FFB40117906017E024FFF01D
:1055B100906016E034FFF09061F774FFF0025757E6
:1055C100EFB40217906017E004F07006906016E0E7
:1055D10004F09061F77401F00257579061F7E0FF12
:1055E10070099061F2E004F0025757EFB401119095
:1055F1006017E02402F0906016E03400F002575783
:10560100906017E024FEF0906016E034FFF002573E
:10561100579061F0E0FFB40317906017E024FFF0AA
:10562100906016E034FFF09061F774FFF002575775
:10563100EF7017906017E004F07006906016E004B8
:10564100F09061F77401F00257579061F7E0FF7035
:10565100099061F3E004F0025757EFB40111906033
:1056610017E02402F0906016E03400F002575790E2
:105671006017E024FEF0906016E034FFF002575707
:105681009061F0E0FF7017906017E024FFF09060E8
:1056910016E034FFF09061F774FFF0025757EFB452
:1056A1000317906017E004F07006906016E004F0B4
:1056B1009061F77401F00257579061F7E0FF7009AC
:1056C1009061F4E004F0025757EFB40110906017B5
:1056D100E02402F0906016E03400F08079906017C9
:1056E100E024FEF0906016E034FFF080699061F0F4
:1056F100E0FFB40216906017E024FFF0906016E01E
:1057010034FFF09061F774FFF0804BEFB401169015
:105711006017E004F07006906016E004F09061F705
:105721007401F080319061F7E0FF70089061F5E05D
:1057310004F08022EFB40110906017E02402F09091
:105741006016E03400F0800E906017E024FEF090C7
:105751006016E034FFF0906016E0B4FF0CA3E0B4F3
:10576100FF07E4906016F0A3F09061A5EEF022E44B
:055771009061F7F02239
:10500000C0E0C0F0C083C082C0D075D000C000C076
:1050100002C003C004C005C006C00790601CE07059
:1050200002A3E0601190601C74FFF5F0125EB345BE
:10503000F0700353C8FB90601BE0701A906019E099
:10504000B4FF13E4F090601B04F0906150E0F59918
:105050009060187401F090613AE060030250ED0432
:10506000F0907F9AE0FFC4540F54039061A5F09034
:10507000613BF0907F9AE054FD907F97F0907F9A8B
:10508000E04402907F97F07C007D00907F99E0548F
:105090003FFF743E2DF582E43461F583EFF0907F9D
:1050A0009BE030E30E743E2DF582E43461F583E03D
:1050B0004440F0743E2DF582E43461F583E0FF74E2
:1050C000262DF582E43461F583EFF0907F99E0447A
:1050D00080907F96F0907F99E0547F907F96F00DBE
:1050E000BD00010CED64114C70A1025179125561A3
:1050F00090613AE0640B60030251799061F8E070CE
:105100007890613A04F0907F9AE030E60890613937
:105110007401F08005906139E4F0907F9AE054FDCD
:10512000907F97F0907F9AE04402907F97F07C0008
:105130007D00907F99E0543FFF74262DF582E43482
:1051400061F583EFF0907F9BE030E30E74262DF540
:1051500082E43461F583E04440F0907F99E044803C
:10516000907F96F0907F99E0547F907F96F00DBDF0
:1051700000010CED64114C70B990613AE0FFD394DA
:10518000004009EFC3940B5003E004F0907FB6E0B9
:1051900030E1030252D1906022E0FEA3E0FF906074
:1051A00016E0FAA3E0FB6F7002EA6E602A907E8040
:1051B0007402F0A314F0906017E0907E82F0EAFF92
:1051C0003395E0A3EFF0907FB77404F0906022EA8B
:1051D000F0A3EBF00252D19061F8E07052FCFD7444
:1051E0003E2DF582E43461F583E0FF74262DF582CF
:1051F000E43461F583E0FE6F60129061F87401F0B1
:10520000743E2DF582E43461F583EEF00DBD0001AE
:105210000CED64114C70C890614FE0FF906139E073
:10522000FE6F600B90614FEEF09061F87401F090AA
:1052300061F8E0FFB40234907E807408F09061F968
:10524000E0907E81F09061FAE0907E82F09061FBC8
:10525000E0907E83F09061FCE0907E84F0907FB7D8
:105260007405F09061F87403F08066EF6404706177
:10527000907E807409F09061F9E0907E81F09061F9
:10528000FAE0907E82F09061FBE0907E83F0906186
:10529000FCE0907E84F09061FDE0907E85F090616E
:1052A000FEE0907E86F09061FFE0907E87F0906255
:1052B00000E0907E88F0906201E0907E89F090623C
:1052C00002E0907E8AF0907FB7740BF09061F8E472
:1052D000F05391EF907FAB7402F0D007D006D00569
:1052E000D004D003D002D000D0D0D082D083D0F070
:0352F000D0E032D9
:10641500C0E0C083C0825391EF907FAB7410F0D081
:0664250082D083D0E032BA
:0161FF00326D
:1063E600C0E0C083C082D2045391EF907FAB7408A3
:0863F600F0D082D083D0E03228
:0164990032D0
:01649A0032CF
:01649B0032CE
:105FB700C0E0C083C082C0D075D000C000C004C09C
:105FC70005C006C007907FC6E020E14C53C8FB9090
:105FD7007E40E0FF700890601CF0A3F08035EFC3AF
:105FE7009410502FEF25E02422F8E6FE08E6FDACDA
:105FF70006ECFF3395E0EFF5CBAF05EFF5CA907EE2
:1060070042E0FE907E41E0FDEE90601CF0EDA3F0D3
:1060170043C804907FC7E4F05391EF907FAA7402BE
:10602700F0D007D006D005D004D000D0D0D082D091
:0460370083D0E03200
:01649C0032CD
:105F0100C0E0C083C082C0D075D000C004C005C04D
:105F110006C007907FC8E030E103025F9DA3E0FF68
:105F2100D394014072907DC0E0FEC3945550687DCA
:105F310001EDC39F505BEEC394555055EEC39404DD
:105F41005027AC050D74C02CF582E4347DF583E057
:105F51002424F582E43460F583E0FC74502EF5824C
:105F6100E43461F583ECF08025AC050D74C02CF5AB
:105F710082E4347DF583E02424F582E43460F58302
:105F8100E0FC74512EF582E43461F583ECF00E806F
:105F9100A090601974FFF0907FC9E4F05391EF90E5
:105FA1007FAA7404F0D007D006D005D004D0D0D099
:065FB10082D083D0E03233
:01649D0032CC
:01649E0032CB
:01649F0032CA
:0164A00032C9
:0164A10032C8
:0164A20032C7
:0164A30032C6
:0164A40032C5
:0164A50032C4
:0164A60032C3
:10603B00E4F5147A1179867B018B118A128913127C
:10604B005E3964427059042513F513E43512F512C9
:10605B0074012513F513E43512F512751E54E4FF84
:10606B007D207A617BC61262D9E514C39420502F30
:10607B00AF14051474C62FF582E43461F583E0FF89
:10608B00AB110513E513AA127002051214F9EF12E6
:10609B005E7F74012513F513E43512F51280CA22C5
:10598400907FE9E02458602D24E87003025A9114B2
:105994006045241B6003025B8A907F92E0FFC4543D
:1059A4000F907F00F0907FB57401F0907FB4E044D5
:1059B40002F0025B8A907F007407F0907FB5740157
:1059C400F0907FB4E04402F07FE87E031263FED2DD
:1059D40006126302025B8A907FE8E064406003027F
:1059E4005B8A907FECE07005751430800375143881
:1059F400E4907FC5F0907F92E0FFC4540F751500CA
:105A0400F516D39400E51594005009907FC4E03056
:105A1400E10980F7907FB4E020E3F9751E54AF14D8
:105A24007D087A617BE71262D9E4F517F518AF189F
:105A340074C02FF582E4347EF583E0FE74E72FF51D
:105A440082E43461F583E04EFE74C82FF582E434B9
:105A54007EF583E05EFE74E72FF582E43461F5831E
:105A6400EEF00518E51870020517E51864084517E7
:105A740070BC9061E6E514F0AF1E7D097A617BE6A7
:105A84001263647F0A7E001263FE025B8A907FEADF
:105A9400E07005751E508003751E54907FECE0F590
:105AA40014D3941F4003E4F514E51475F008A4F529
:105AB40014907FE8E064C0703FAF147D087A7F7B68
:105AC400001262D9907FB57408F0907F92E0FFC411
:105AD400540F751500F516D39400E5159400500C79
:105AE400907FB4E020E103025B8A80F4907FB4E00D
:105AF40020E203025B8A80F4907FE8E06440600364
:105B0400025B8A907FC5F0907F92E0FFC4540F75CA
:105B14001500F516D39400E51594005009907FC440
:105B2400E030E10980F7907FB4E020E3F9E51E64FA
:105B340050600CE5146430604DE51464386047E44B
:105B4400F517F518AF1874C02FF582E4347EF58389
:105B5400E0FE74E72FF582E43461F583EEF0051876
:105B6400E51870020517E5186408451770D69061AA
:105B7400E6E514F0AF1E7D097A617BE61263647F6B
:085B84000A7E001263FEC32239
:1062D9008D198A1A8B1B9061EFEFF0AF1E7D017A41
:1062E900617BEF1263647F0A7E001263FEAF1EAD0D
:0962F90019AB1BAA1A126348221A
:10639B00907FD6E030E712E04401F07F147E0012CC
:0A63AB0063FE907FD6E054FEF0225E
:10632700907FD6E04480F043870100000000002200
:10630200907FD6E054FBF0E04408F0300604E0440D
:1063120002F07FDC7E051263FE907FD6E054F7F038
:05632200E04404F0223C
:1063FE008E1C8F1DE51D151DAE1C7002151C4E60EA
:07640E000512633780EE2246
:08648900E4F550D2E9D2AF2284
:10628500A907E5507023907FA5E04480F0E925E05B
:10629500907FA6F08D4BAF03A907754C018A4D89F8
:0B62A5004EE4F54F755001D322C322D8
:1061CE00A907E5507025907FA5E04480F0E925E011
:1061DE004401907FA6F08D4BAF03A907754C018A41
:0D61EE004D894EE4F54F755003D322C322B6
:105D4F00C0E0C083C082C085C084C086758600C095
:105D5F00D0C000C001C002C003C006C007907FA51D
:105D6F00E030E206755006025E1B907FA5E020E151
:105D7F000CE55064026006755007025E1BAF50EFD2
:105D8F0024FE604814602C24FE6077240460030214
:105D9F005E1BAB4CAA4DA94EAF4F054F8F8275833B
:105DAF0000125E52907FA6F0E54F654B705E755006
:105DBF00058059907FA6E0AB4CAA4DA94EAE4F8EF1
:105DCF0082758300125E917550028040E54B24FE70
:105DDF00B54F07907FA5E04420F0E54B14B54F0A6F
:105DEF00907FA5E04440F0E4F550907FA6E0AB4CE7
:105DFF00AA4DA94EAE4F8E82758300125E91054F4C
:105E0F00800A907FA5E04440F0E4F5505391DFD035
:105E1F0007D006D003D002D001D000D0D0D086D08A
:0A5E2F0084D085D082D083D0E03209
:026159008F14A1
:10615B00E4F5157516FF751711751840AB16AA17D0
:10616B00A918900001125E52B4031DAF150515EF6F
:10617B00B5140122125E397E0029FFEE3AA907758C
:0E618B0016FFF517891880D47B007A00790082
:0161990022E3
:10610A00E4FE7516FF751711751812AB16AA17A9B2
:10611A0018900001125E526402702DAD060EEDB5A4
:10612A00070122900002125EC985F014F515621467
:10613A00E5146215E515621429FDE5143AA90575F9
:0E614A0016FFF517891880C37B007A007900D4
:016158002224
:106348001261CEE55024FA600E146006240770F33B
:0C635800D322E4F550D322E4F550D32208
:10636400126285E55024FA600E146006240770F367
:0C637400D322E4F550D322E4F550D322EC
:106337007400F58690FDA57C05A3E582458370F979
:016347002233
:106200000263CE0002500000026380000263E600D9
:10621000026415000261FF000264990002649A00A2
:1062200002649B00025FB70002649C00025F0100F1
:1062300002649D0002649E0002649F000264A0004C
:106240000264A1000264A2000264A3000264A4002C
:086250000264A5000264A6002F
:10625800E4F511D206126302E4F512300103AF111E
:10626800227F647E001263FE0512E512C3941E406D
:0D627800EA0511E511C3940540D9AF1122CC
:105E3900BB010689828A83E0225002E722BBFE0267
:095E4900E32289828A83E493229A
:105E5200BB010CE58229F582E5833AF583E0225005
:105E620006E92582F8E622BBFE06E92582F8E2224F
:0D5E7200E58229F582E5833AF583E4932269
:105E7F00BB010689828A83F0225002F722BBFE0102
:025E8F00F322FC
:105E9100F8BB010DE58229F582E5833AF583E8F047
:105EA100225006E92582C8F622BBFE05E92582C8F3
:025EB100F222DB
:105EB300C5F0F8A3E028F0C5F0F8E582158270027A
:065EC3001583E038F02217
:105EC900BB0110E58229F582E5833AF583E0F5F017
:105ED900A3E0225009E92582F886F008E622BBFEF4
:105EE9000AE92582F8E2F5F008E222E5832AF5833A
:085EF900E993F5F0A3E99322FF
:00000001FF
