:1001EE005061AEC0F9A4B0999282F880988883C607
:1001FE00A1868E4160210042601F000042612400F2
:10020E000041601B00416019FF41613D0041601ECD
:10021E00005560010000800000400000200000102A
:10022E000008000400020001004861A60102040853
:10023E001020408041613C0041613A00416139012A
:10024E0041614F0142601600004260220000486189
:09025E00BE1020400102048008DA
:030033000261FB6C
:030023000260ABCD
:100267004A62090201000607080304050920202243
:1002770000004CD081508F1AB4B0C436C794D08ECA
:10028700D5B9DA58E3C8ED2BF1E4F695FB4BFB8EB5
:100297004161F2004161F3004161F4004161F50001
:0C02A7004161F6004161F7004161F80080
:101100001201000100000040040917100301010250
:10111000030109022E00010100A0320904000004AD
:10112000FF000000070581030C000407050103040C
:10113000000407050202400000070582024000008B
:101140000403070420034600720061006E006B0078
:10115000200041007500640069006F0064006100B8
:1011600074006100220342005200410049004C001B
:101170004C00450020005A00450049004C00450045
:101180002000380030004203010002000300040088
:10119000050006000700080009000A000B000C000B
:1011A0000D000E000F0010001100120013001400BB
:1011B000150016001700180019001A001B001C006B
:0A11C0001D001E001F0020000000AB
:03000000020140BA
:10014000907F9BE054FE907F98F0907F95E054FE66
:10015000F0907F9EE04401F0907F9BE0907F984478
:0E01600001F0787FE4F6D8FD7581500201A908
:03004B00025D4F04
:0300430002620056
:10016E00025B8CE493A3F8E493A34003F68001F2C0
:10017E0008DFF48029E493A3F85407240CC8C33392
:10018E00C4540F4420C8834004F456800146F6DF61
:10019E00E4800B01020408102040809001EEE47E02
:1001AE00019360BCA3FF543F30E509541FFEE49356
:1001BE00A360010ECF54C025E060A840B8E493A31D
:1001CE00FAE493A3F8E493A3C8C582C8CAC583CA48
:1001DE00F0A3C8C582C8CAC583CADFE9DEE780BE00
:0102B300004A
:00000001FF
